:100000000C948F000C94FD1C0C94D61C0C94B7001F
:100010000C94B7000C94B7000C94B7000C94B70084
:100020000C94B7000C94B7000C94B7000C94B70074
:100030000C94B7000C94B7000C94B7000C94B70064
:100040000C948C1C0C94B7000C945A1C0C94341C0B
:100050000C94B7000C94B7000C94B7000C94B70044
:100060000C94B7000C94B70008000000BE9224491D
:10007000123EABAAAA2ABECDCCCC4C3E00000080DA
:10008000BEABAAAAAA3E00000000BF000000803F4D
:100090000000000000084178D3BB4387D1133D190D
:1000A0000E3CC3BD4282AD2B3E68EC8276BED98F3A
:1000B000E1A93E4C80EFFFBE01C4FF7F3F0000007E
:1000C00000000000000023002600290000000000BE
:1000D000250028002B00000000080002010000039A
:1000E00004070000000000000000000000002400E1
:1000F00027002A00010204081020408001020408A1
:100100001020010204081020040404040404040460
:10011000020202020202030303030303341D11243B
:100120001FBECFEFD8E0DEBFCDBF12E0A0E0B1E050
:10013000EEE2F1E602C005900D92A039B107D9F7C1
:1001400025E0A0E9B2E001C01D92AF36B207E1F7A9
:1001500010E0CFE8D0E004C02197FE010E945D2F9F
:10016000CE38D107C9F70E94201E0C9495300C940C
:1001700000008091690590916A0501968F3F910575
:1001800009F02CF490936A05809369050895109204
:100190006A05109269050895FB01E40FF51F22918D
:1001A000DC012D93CD01E617F707C9F708950F93EA
:1001B0001F93CF93DF9300D000D0CDB7DEB706E218
:1001C00013E021E4F801208328E8218320916905C8
:1001D00022832AEC23832EED248342E050E0BC01ED
:1001E000CE0103960E94CC008B819C81F8019683FE
:1001F000858342E050E064E273E0CE0101960E9404
:10020000CC0089819A81F801908787830E94B90088
:100210000F900F900F900F90DF91CF911F910F9142
:10022000089580912603853C91F0863A99F08134B7
:1002300069F4809127038C3821F48091350390E094
:100240000895883819F480912F03F9CF089584E038
:1002500090E0089586E090E0089581E08093BA02EE
:10026000089581E08093BB020895AF92BF92CF9230
:10027000DF92EF92FF920F931F93CF93DF936C0166
:100280007B018B01040F151FEB015E01AE18BF0847
:10029000C017D10759F06991D601ED91FC910190F9
:1002A000F081E02DC6010995892B79F7C501DF9111
:1002B000CF911F910F91FF90EF90DF90CF90BF9063
:1002C000AF900895FC01538D448D252F30E0842F8D
:1002D00090E0821B930B541710F0CF96089501976E
:1002E0000895FC01918D828D981761F0A28DAE0F5B
:1002F000BF2FB11D5D968C91928D9F5F9F73928FE2
:1003000090E008958FEF9FEF0895FC01918D828D0D
:10031000981731F0828DE80FF11D858D90E00895DA
:100320008FEF9FEF0895FC01918D228D892F90E032
:10033000805C9F4F821B91098F739927089586E8EF
:1003400093E00E94930121E0892B09F420E0822FA1
:10035000089580E090E0892B29F00E949F0181118F
:100360000C9400000895FC01A48DA80FB92FB11DB5
:10037000A35ABF4F2C91848D90E001968F739927DB
:10038000848FA689B7892C93A089B1898C918370B9
:1003900080648C93938D848D981306C00288F389B2
:1003A000E02D80818F7D80830895EF92FF920F93DF
:1003B0001F93CF93DF93EC0181E0888F9B8D8C8D11
:1003C00098131AC0E889F989808185FF15C09FB705
:1003D000F894EE89FF896083E889F98980818370C8
:1003E000806480839FBF81E090E0DF91CF911F9177
:1003F0000F91FF90EF900895F62E0B8D10E00F5F98
:100400001F4F0F731127E02E8C8D8E110CC00FB66D
:1004100007FCFACFE889F989808185FFF5CFCE0105
:100420000E94B301F1CFEB8DEC0FFD2FF11DE35ACC
:10043000FF4FF0829FB7F8940B8FEA89FB89808188
:100440008062CFCFCF93DF93EC01888D8823B9F002
:10045000AA89BB89E889F9898C9185FD03C08081CF
:1004600086FD0DC00FB607FCF7CF8C9185FFF2CF4C
:10047000808185FFEDCFCE010E94B301E9CFDF91EE
:10048000CF910895833081F028F4813099F0823043
:10049000A9F008958730A9F08830C9F08430B1F40C
:1004A000809180008F7D03C0809180008F77809342
:1004B0008000089584B58F7784BD089584B58F7DBD
:1004C000FBCF8091B0008F778093B000089580912A
:1004D000B0008F7DF9CF1F93CF93DF93282F30E0AB
:1004E000F901EA52FF4F8491F901EC50FF4FD4918A
:1004F000F901E85FFE4FC491CC23A9F0162F8111BA
:100500000E944202EC2FF0E0EE0FFF1FE453FF4F7A
:10051000A591B4918FB7F894EC91111108C0D095C2
:10052000DE23DC938FBFDF91CF911F910895DE2BE7
:10053000F8CFCF93DF9390E0FC01EC50FF4F249174
:10054000885F9E4FFC0184918823D1F090E0880F52
:10055000991FFC01E651FF4FA591B491FC01E453B2
:10056000FF4FC591D49161110EC09FB7F8948C9143
:10057000E22FE0958E238C932881E223E8839FBFAE
:10058000DF91CF9108958FB7F894EC91E22BEC9323
:100590008FBFF6CF3FB7F8948091C9029091CA02FD
:1005A000A091CB02B091CC0226B5A89B05C02F3FED
:1005B00019F00196A11DB11D3FBFBA2FA92F982F89
:1005C0008827BC01CD01620F711D811D911D42E084
:1005D000660F771F881F991F4A95D1F708958F924C
:1005E0009F92AF92BF92CF92DF92EF92FF924B0118
:1005F0005C010E94CA026B017C010E94CA026C1954
:100600007D098E099F09683E734081059105A8F315
:1006100021E0821A9108A108B10888EEC80E83E093
:10062000D81EE11CF11C81149104A104B10429F726
:10063000FF90EF90DF90CF90BF90AF909F908F9002
:1006400008952FB7F8946091C5027091C602809109
:10065000C7029091C8022FBF08950895FC01DB01E5
:1006600086179707E9F07C9111966C911197129675
:100670005C91129713964C91139714963C91149792
:1006800015962C91159716969C91169717968C9106
:100690007083618352834383348325839683878366
:1006A000CF010895DF92EF92FF920F931F93CF93A4
:1006B000DF93FC01D080E180F28003811481D58139
:1006C000C681B7812D2D3E2D4F2D502F612F7D2FAF
:1006D0008C2F9B2FA0E00E94512F5CF47F5F8F4FE7
:1006E0009F4F208331834283538364837583868342
:1006F0009783CF01DF91CF911F910F91FF90EF90E2
:10070000DF900895FC01DB017C9111966C911197AB
:1007100012965C91129713964C91139714963C91F4
:10072000149715962C91159716969C9116971796D7
:100730008C917083618352834383348325839683B2
:10074000878308956F927F928F929F92AF92BF920C
:10075000CF92DF92EF92FF920F931F93CF93DF938D
:10076000CDB7DEB728970FB6F894DEBF0FBECDBF6A
:100770003C014A01CE0101960E94820329813A81FF
:100780004B815C816D817E818F819885F401A08091
:10079000B180C280D380E480F580068117810E94F9
:1007A000482F29833A834B835C836D837E838F83B9
:1007B0009887BE016F5F7F4FC3010E948203C30110
:1007C00028960FB6F894DEBF0FBECDBFDF91CF9154
:1007D0001F910F91FF90EF90DF90CF90BF90AF905F
:1007E0009F908F907F906F9008958F929F92AF927D
:1007F000BF92CF92DF92EF92FF920F931F93CF930E
:10080000DF93CDB7DEB728970FB6F894DEBF0FBEE3
:10081000CDBF4C018A01CE0101960E948203F801EE
:1008200020813181428153816481758186819781E4
:10083000A980BA80CB80DC80ED80FE800F81188596
:100840000E943F2F29833A834B835C836D837E8391
:100850008F839887BE016F5F7F4FC4010E94820320
:10086000C40128960FB6F894DEBF0FBECDBFDF914E
:10087000CF911F910F91FF90EF90DF90CF90BF909D
:10088000AF909F908F9008950F931F93CF93DF9316
:10089000FC01108211821282138214821582168248
:1008A0001782EB01B0E0A0E0299130E040E050E099
:1008B00060E070E080E090E00A2F0E94092F108134
:1008C000212B1181312B1281412B1381512B14814A
:1008D000612B1581712B1681812B1781912B208320
:1008E0003183428353836483758386839783189609
:1008F000A832B105C9F6DF91CF911F910F910895EC
:100900000E9421036093BC027093BD028093BE02DB
:100910009093BF0208959FB7F8942091D1028091DF
:10092000A002213019F48DBB9FBF08958FBF089599
:10093000CF92DF92EF92FF92280F391FF0E0E0E0B4
:100940008217930779F06A017B010E2E04C0F5949B
:10095000E794D794C7940A94D2F7DC01CD92CD01E5
:100960003896EECFFF90EF90DF90CF90089590ED06
:10097000980F9A3028F4082E000C990BC097089510
:100980009FE9980F963030F4082E000C990B87558C
:10099000910908959FEB980F963028F4082E000CCB
:1009A000990BC79708958FEF90E008957F928F92EB
:1009B0009F92AF92BF92CF92DF92EF92FF920F93EE
:1009C0001F93CF93DF93CDB7DEB728970FB6F89478
:1009D000DEBF0FBECDBF5C010FE911E0CE01019675
:1009E0006C0127EB822E21E0922E782EED2CF8015F
:1009F00080810E94B704F82EF80181810E94B7041B
:100A0000F29490EFF922F80EF601F1926F010D5F6A
:100A10001F4F8016910659F788E0E72DFE2DD5016E
:100A200001900D928A95E1F728960FB6F894DEBFF3
:100A30000FBECDBFDF91CF911F910F91FF90EF902F
:100A4000DF90CF90BF90AF909F908F907F90089550
:100A50008EBD00000DB407FEFDCF8EB50895209128
:100A6000D102222381F03FB7F8942091D1022130A6
:100A700069F42DB32093A0024DB32091D0022095AC
:100A800024232DBB3FBF8CBD9DBD08953093A00294
:100A9000FACFFB012081318142815381FC016081C9
:100AA0007181828193810E94812B0E949C2CCB01B9
:100AB00008950F931F93FC018A019B014489558976
:100AC0008689978948175907C9F0A489B589AA0F5B
:100AD000BB1FAA0FBB1FAE0FBF1F0D931D932D93FE
:100AE0003C93139784899589019665E070E00E9494
:100AF000D32A958B848B1F910F91089586899789AE
:100B0000019665E070E00E94D32A978B868BDDCF3B
:100B1000FC0101900020E9F73197AF01481B590B08
:100B2000BC0186E893E00C9435018F929F92AF92BE
:100B3000BF920F931F93CF93DF93CDB7DEB7A197EB
:100B40000FB6F894DEBF0FBECDBF19A2423008F435
:100B50004AE08E010F5D1F4F842E912CB12CA12CE9
:100B6000A50194010E94502BE62FB901CA01EA3079
:100B7000F4F4E05DD801EE938D01232B242B252B7B
:100B800079F790E080E0109719F0CD010E94880578
:100B9000A1960FB6F894DEBF0FBECDBFDF91CF9107
:100BA0001F910F91BF90AF909F908F900895E95C37
:100BB000E1CF0C9488054F925F926F927F928F9253
:100BC0009F92AF92BF92CF92DF92EF92FF920F93DC
:100BD0001F93CF936B017C01742EAC019B010E948B
:100BE000E52D882399F087EB91E0CF911F910F912C
:100BF000FF90EF90DF90CF90BF90AF909F908F903D
:100C00007F906F905F904F900C948805460157013C
:100C1000E894B7F82FEF3FEF4FE75FE7C501B40166
:100C20000E94E52D81110DC02FEF3FEF4FE75FE7E9
:100C3000C501B4010E94AF2918161CF48BEB91E09A
:100C4000D4CF2FEF3FEF4FE75FE4C701B6010E941B
:100C5000882D18161CF48FEB91E0C7CF2FEF3FEFD4
:100C60004FE75FECC701B6010E94AF2987FDF3CFC4
:100C700020E030E0A901C701B6010E94AF2910E0D1
:100C800000E087FF0AC06DE286E893E00E94D5018C
:100C90008C01F7FAF094F7F8F094C0E060E070E0AF
:100CA00080E09FE37C1641F020E030E040E251E438
:100CB0000E94EE2BCF5FF6CFA70196010E94822BF8
:100CC0002B013C010E94A32C4B015C014AE00E94D5
:100CD00095057C01E00EF11ECC23C1F1C501B401E4
:100CE0000E94B4299B01AC01C301B2010E94812B77
:100CF0004B015C016EE286E893E00E94D501E80EAC
:100D0000F91EC15018F120E030E040E251E4C50185
:100D1000B4010E94152A2B013C010E94A32C4B0117
:100D2000B12CA12C4AE0C501B4010E949505E80E42
:100D3000F91EC501B4010E94B4299B01AC01C30195
:100D4000B2010E94812B4B015C01DBCFC701CF9127
:100D50001F910F91FF90EF90DF90CF90BF90AF90D9
:100D60009F908F907F906F905F904F900895CF935A
:100D7000DF930E948805EC0183EC91E00E948805D6
:100D80008C0F9D1FDF91CF910895CF93DF93BC010E
:100D900090E080E040E10E949505EC0183EC91E059
:100DA0000E9488058C0F9D1FDF91CF9108950F93AE
:100DB000CF93DF93FC0185E0DB011D928A95E9F773
:100DC000DB01D0E0C0E02081318142815381648128
:100DD0007581868197810C2F0E94222F2D93289652
:100DE000C832D10581F7DF91CF910F910895CF924D
:100DF000DF92EF92FF920F931F93CF93DF936C01DB
:100E0000E090AA02F090AB02D0E0C0E010E000E079
:100E10000E151F05ECF442E050E0BE0167587B4F11
:100E2000C6010E9488309E01265B3F4F892B61F4EA
:100E3000CE018F5B9B4FDF91CF911F910F91FF9060
:100E4000EF90DF90CF9008950F5F1F4FE901E0CF43
:100E500090E080E0F0CF9F92AF92BF92CF92DF926E
:100E6000EF92FF920F931F93CF93DF9300D01F92C7
:100E7000CDB7DEB76A0179016115710559F5806852
:100E8000898301E010E0E0910C01F0910D01808177
:100E900091810E942F059090CD0260E0892D0E94E3
:100EA0006B02CE0101965C01080F191FF5018191BB
:100EB0005F010E942805A016B106C1F78601EC0C5F
:100EC000FD1CE016F106D9F0F80181918F010E9416
:100ED0002805F7CF806C89836038710520F46A8318
:100EE00002E010E0D0CF862F80688A83660F672FDC
:100EF000661F770B71956B8303E010E0C4CF8FE022
:100F000090E00197F1F761E0892D0E946B028091DA
:100F1000D102882381F00F900F900F90DF91CF9135
:100F20001F910F91FF90EF90DF90CF90BF90AF9007
:100F30009F900C948B040F900F900F90DF91CF91A6
:100F40001F910F91FF90EF90DF90CF90BF90AF90E7
:100F50009F900895CF9380911C01CCE5811101C031
:100F6000CAE52C2F30E046E253E070E060E089E013
:100F70000E942B07C093800380918103807E809321
:100F80008103CF910895EBE9F2E08081806F808347
:100F900025E030E0AF0170E060E08FE00C942B07BB
:100FA000EBE9F2E082819181946F91838560828385
:100FB00025E030E0AF0170E060E08FE00C942B079B
:100FC0008091C00290911C01911111C081608093A9
:100FD000C0028091C10281608093C10224E030E0B0
:100FE00040EC52E070E060E08DE00C942B078E7FC7
:100FF000EECF25E030E040E853E070E060E088E0CC
:101000000E942B0790911C018091C002911124C075
:1010100081608093C0028091C00282608093C00290
:1010200024E030E040EC52E070E060E08DE00E94AF
:101030002B078091DE02882389F0E0ECF2E084E067
:10104000DF011D928A95E9F781E090E09093D30249
:101050008093D2020C94E0078E7FDBCF1092D302F4
:101060001092D20208950E94AA070C94F907E0ECAE
:10107000F2E084E0DF011D928A95E9F780E4808345
:101080001092D3021092D20224E030E0AF0170E05F
:1010900060E08DE00C942B070E943708E0ECF2E052
:1010A00084E0DF011D928A95E9F70E94D00781E074
:1010B00090E09093D3028093D202089524E030E030
:1010C00048EE52E070E060E084E00C942B07FF9261
:1010D0000F931F93CF93DF931F92CDB7DEB78C0191
:1010E000FC0180818370F82E809181038378F0E287
:1010F000FF9E90011124822B809381039091EA023C
:101100008091EE02F1100CC090649093EA02826329
:101110008093EE0261E080E1F61661F080E40AC09F
:101120009F7B9093EA0232E0F312F1CF8D7C8093A3
:10113000EE0288E0898321E030E0AE014F5F5F4F2F
:1011400070E060E081E20E942B07F0921A01F80142
:1011500021812370909182039C7F922B9093820334
:101160008091EE02837FF4E02F9FA0011124842B55
:101170008093EE0220931B01F8012281322F3F70F1
:10118000937CF4E03F9FA0011124942B9093820361
:101190002B7098E0213039F090E1293021F090E275
:1011A000323009F090E4909318013093190195E5DD
:1011B0009093EC0295E0909317018F73F801918161
:1011C000913079F48093EE0281E28093EF0284E023
:1011D000809316010F90DF91CF911F910F91FF9097
:1011E000089580688093EE0282E58093EF028AE0A2
:1011F000EFCF8091D2029091D302892B59F51092B2
:1012000085038091EA028C7F1092E30284608093D0
:10121000EA0281E080931C018091E8028E7F809336
:10122000E8029091F0028091F1022091F202256093
:101230002093F2028B7F806F8093F10298689093E5
:10124000F0028091EB0280628093EB0287E291E0F2
:101250000C94670808950E943708E0ECF2E084E0FF
:10126000DF011D928A95E9F70E94C30782E090E0B2
:101270009093D3028093D2020C94F908BF92CF923C
:10128000DF92EF92FF920F931F93CF93DF93B42ED1
:10129000E52E8901C82FCC24C394D12C611571058A
:1012A00029F0C064D62F82E0C82ED12CE0910C0129
:1012B000F0910D01808191810E942F05F090CD0267
:1012C00060E08F2D0E946B028C2F0E942805CA942B
:1012D000CD2819F08D2F0E942805CB2DDE2D0C0F67
:1012E0001D1FC017D10729F080E00E9428058993AF
:1012F000F8CF8FE090E00197F1F761E08F2D0E9429
:101300006B028091D102882359F0DF91CF911F9118
:101310000F91FF90EF90DF90CF90BF900C948B04D3
:10132000DF91CF911F910F91FF90EF90DF90CF90C1
:10133000BF9008952F923F924F925F926F927F924B
:101340008F929F92AF92BF92CF92DF92EF92FF92D5
:10135000CF93DF93CDB7DEB72A970FB6F894DEBFF1
:101360000FBECDBF22E030E0AE014B5F5F4F66E0C5
:1013700070E082E10E943E0924E030E0AE014F5F60
:101380005F4F70E060E080E10E943E096D807E80EA
:101390006B8170E044E0769567954A95E1F78C8122
:1013A00020E1829FC0011124682B792B80911B01C1
:1013B0002DE6222E26E5322E25E1422E20E4522E65
:1013C00034EAC32E30E7D32E37EEE32E32E4F32E89
:1013D000813081F08DE6282E86E5382E85E9482E6D
:1013E0008FE3582E91EEC92E9AE7D92E93EFE92E6E
:1013F00092E4F92E90E080E00E94B4294B015C0158
:10140000B30190E080E00E94B42920E030E040E0A9
:1014100058E40E94152A6F83788789879A87A501E7
:101420009401C501B4010E94152A9B01AC016F8192
:10143000788589859A850E94EE2B0E948D2D20E06B
:1014400030E040E251E40E94152AA70196010E9473
:10145000812B6B017C0120E030E040EB52EC0E94DC
:10146000AF291816A4F420E030E040EB52E4C701A5
:10147000B6010E94822BA20191010E94152A9B01B4
:10148000AC01C701B6010E94822B6B017C01C70130
:10149000B6012A960FB6F894DEBF0FBECDBFDF911E
:1014A000CF91FF90EF90DF90CF90BF90AF909F9043
:1014B0008F907F906F905F904F903F902F90089506
:1014C0004F925F926F927F928F929F92AF92BF9254
:1014D000CF92DF92EF92FF920F931F93CF93DF9300
:1014E00000D000D01F92CDB7DEB74C0125E030E030
:1014F000AE014F5F5F4F70E060E085E10E943E0902
:10150000BE016F5F7F4FC4010E9444040E949A098C
:1015100020E030E044E752E40E94822B905820E023
:1015200030E040E05FE30E94152A2B013C010E945D
:101530009C2CDB0177FD98C0AB014F5F5F4F4231C0
:1015400051050CF096C03091170120911B013430E9
:1015500019F0373009F0A6C0213009F08FC0FA0128
:10156000E05AFE4F008110E0473051051CF4119500
:1015700001951109000F111FFD01E05AFE4FE08097
:10158000F12CA730B1051CF4F194E194F108EE0CB4
:10159000FF1CBD01BB0F880B990B0E94B6299B0154
:1015A000AC01C301B2010E94812B2B013C01B801A7
:1015B0006E197F09072E000C880B990B0E94B62923
:1015C0009B01AC01C301B2010E94152A2B013C0111
:1015D000B701FF0C880B990B0E94B6299B01AC0147
:1015E000C301B2010E94822B23EB33E245E553E4B1
:1015F0000E94152A2FE632E143E85AE30E94152A99
:101600000E949C2C9B01932F990F990B492F592FC6
:10161000692F792F892FF401A080B180C280D380F7
:10162000E480F580068117810E943F2F208331835B
:101630004283538364837583868397830F900F90CF
:101640000F900F900F90DF91CF911F910F91FF900E
:10165000EF90DF90CF90BF90AF909F908F907F9052
:101660006F905F904F90089550E040E0B0E0A0E0B0
:101670006ACF41E150E0A1E1B0E065CF223009F04E
:1016800088CFFA01E25BFE4F008110E04730510540
:101690001CF4119501951109000F111FFD01E25B6A
:1016A000FE4F6DCF2130C1F4FA01E45CFE4F0081A2
:1016B00010E04A3051051CF4119501951109FD0106
:1016C000E45CFE4FE080F12CAA30B1050CF061CF54
:1016D000F194E194F1085DCF223009F05ACFFA017C
:1016E000E65DFE4F008110E0483051051CF4119575
:1016F00001951109FD01E65DFE4FE080F12CA83057
:10170000B1050CF046CFE4CF0F931F93CF93DF9337
:1017100000D000D01F92CDB7DEB78C0125E030E0BD
:10172000AE014F5F5F4F70E060E087E10E943E09CD
:10173000BE016F5F7F4FC8010E9444040F900F905D
:101740000F900F900F90DF91CF911F910F910895FF
:101750008F929F92AF92BF92CF92DF92EF92FF92C1
:101760000F931F93CF93DF93CDB7DEB72D970FB6AF
:10177000F894DEBF0FBECDBF4C018B018091D20229
:101780009091D3028230910509F07EC08091C00211
:1017900084608093C00219821A821B821C821D827F
:1017A0001E821F82188625E030E0AE01475F5F4F42
:1017B00070E060E086E00E943E09BE01675F7F4FF7
:1017C000CE0101960E944404F801208131814281BA
:1017D00053816481758186819781A980BA80CB808D
:1017E000DC80ED80FE800F8118850E943F2F2983C9
:1017F0003A834B835C836D837E838F839887BE019E
:10180000675F7F4FCE0101960E94D70619868A85B1
:101810008E7F8A8725E030E0AE01475F5F4F70E042
:1018200060E08AE00E942B07BE01675F7F4FCE0118
:1018300001960E9444042091390430913A04409169
:101840003B0450913C0460913D0470913E048091B2
:101850003F0490914004A980BA80CB80DC80ED8069
:10186000FE800F8118850E943F2F29833A834B8386
:101870005C836D837E838F839887BE016F5F7F4F0C
:10188000C4010E94820311C0019731F48091C1020A
:1018900082608093C1027FCFF40110821182128294
:1018A00013821482158216821782C4012D960FB6F8
:1018B000F894DEBF0FBECDBFDF91CF911F910F9186
:1018C000FF90EF90DF90CF90BF90AF909F908F9060
:1018D0000895CF93DF93CDB7DEB728970FB6F8946E
:1018E000DEBF0FBECDBFBC01CE0101960E94A80B8A
:1018F0000E94AA070E94F90728960FB6F894DEBF47
:101900000FBECDBFDF91CF9108952F923F924F929E
:101910005F926F927F928F929F92AF92BF92CF927F
:10192000DF92EF92FF920F931F93CF93DF93CDB788
:10193000DEB7C05CD1090FB6F894DEBF0FBECDBFD5
:101940000E9421032091BA02211137C02091BB02CD
:10195000211133C00091BC021091BD022091BE0242
:101960003091BF02601B710B820B930B0091DA0266
:101970001091DB022091DC023091DD02061717077F
:1019800028073907D0F48091F4029091F50201976D
:1019900091F41092A9020E944C080E94F90881E07B
:1019A0008093DE028091EB0280628093EB020E94C2
:1019B0005E080E94E0070E9480040E9421036B01E0
:1019C0007C018091B6029091B702A091B802B091CB
:1019D000B902B701A601481B590B6A0B7B0B80911A
:1019E000D6029091D702B0E0A0E084179507A60731
:1019F000B7070CF08BC0C092B602D092B702E0924B
:101A0000B802F092B9020091AA021091AB02809143
:101A1000A1029091A202101611060CF0C9C1892BE7
:101A200009F4C9C18091F4029091F502892B09F063
:101A300060C081E08093A9020E942B0922E1209FCF
:101A4000C001219F900D1124805B9F4F9093D7027E
:101A50008093D6028FEF89838A83CE0101960E94FC
:101A6000D70010922F030093300380E797E1909303
:101A7000800480937F042091790430917A0430931C
:101A80003203209331039093340380933303013066
:101A9000110539F180E596E49093CA048093C90456
:101AA0002091C3043091C40430933603209335034E
:101AB00090933803809337030230110591F080E34F
:101AC00095E7909314058093130520910D053091AF
:101AD0000E0530933A032093390390933C0380938F
:101AE0003B0389818093AC028A818093AD020E947E
:101AF00033088091A1029091A2020196863091054F
:101B00000CF0F9C19093A2028093A1028091B202DD
:101B10009091B302A091B402B091B502A7019601D1
:101B2000281B390B4A0B5B0BDA01C9018B3F91056E
:101B3000A105B1050CF44EC0C092B202D092B3021E
:101B4000E092B402F092B5028091F4029091F50215
:101B5000892B09F03FC00E942B0986EA8093260357
:101B6000809169058093270348E050E064E273E0C8
:101B7000CE0101960E94CC0088E0FE013196A8E2D9
:101B8000B3E001900D928A95E1F742E050E064E203
:101B900073E0CE01855B9F4F0E94CC002D968EADE9
:101BA0009FAD2D9790933103809330030E94B9002D
:101BB000809110019091110190933203809333032F
:101BC00080910E0190910F0190933403809335031F
:101BD0000E9433088091AE029091AF02A091B002B2
:101BE000B091B102B701A601481B590B6A0B7B0BE0
:101BF000DB01CA0181319742A105B10584F08091D2
:101C0000F4029091F502019751F48FEF9FEF9093BA
:101C100011018093100190930F0180930E01809128
:101C2000BA028823C9F01092BA020E9411018330CF
:101C3000910508F046C22091F4023091F50221305E
:101C4000310509F05DC1019739F48CEA92E00E94F8
:101C5000F70640960E94840B8091BB02882309F40A
:101C600030C21092BB022AE530E046E253E070E059
:101C700060E081E10E943E090E9411018C018430E4
:101C8000910509F038C28091F4029091F502019714
:101C900009F00AC388E0E8E2F3E0DE011196019062
:101CA0000D928A95E1F748E050E0BE016F5F7F4FEB
:101CB000CE018D5A9F4F0E94CC00809130039091AD
:101CC00031032D969FAF8EAF2D9742E050E0BE01BD
:101CD000655B7F4FCE018D599F4F0E94CC001982CA
:101CE0001A821B821C821D821E821F821886198600
:101CF0001A861B861C861D861E861F86188A198AD0
:101D00001A8A1B8A1C8A1D8A1E8A1F8A188E198E9F
:101D10001A8E1B8E1C8E1D8E1E8E1F8E18A219A24F
:101D20001AA21BA21CA21DA21EA21FA218A619A6BF
:101D30001AA61BA61CA61DA61EA61FA618AA88E0EA
:101D4000FE01ED5AFF4FDE01D19601900D928A956A
:101D5000E1F7A5968EAD9FADA5979AAF89AFC090DC
:101D6000AA02D090AB0201E414E0F12CE12CEC14B7
:101D7000FD040CF03AC148E050E0BE016F5C7F4FBB
:101D8000C801C0960E948830892B61F442E050E07F
:101D9000BE01675C7F4FC801C8960E948830892BBE
:101DA00009F48DC18FEFE81AF80A065B1F4FDFCFE9
:101DB000892B09F09ECE8091F4029091F502892B37
:101DC00079F50E942B0985EC8093260380916905A3
:101DD0008093270348E050E066EF72E0CE01019661
:101DE0000E94CC0088E0FE013196A8E2B3E00190A9
:101DF0000D928A95E1F742E050E064E273E0CE0193
:101E0000855B9F4F0E94CC002D968EAD9FAD2D9788
:101E100090933103809330030E94B9000E943308ED
:101E200001E414E0B12CA12C8091AA029091AB02A4
:101E3000A816B9060CF05DCE0E942103D801DA96EF
:101E40004D905D906D907C90DD97641975098609C1
:101E50009709693E73408105910518F10E9421039D
:101E6000F80162AF73AF84AF95AF86EC91E00E944A
:101E7000D905D801D9968C91D99790E0982F8827C9
:101E8000D8962C91820F911D0E94C5068091AA02BE
:101E90009091AB028130910551F41092AB021092F7
:101EA000AA02BFEFAB1ABB0A065B1F4FBDCF01975B
:101EB000D8019501A816B90629F4B092AB02A092F8
:101EC000AA02EFCFAD01465B5F4F2817390774F4C4
:101ED0006AE4FA0101900D926A95E1F7FA013A97E6
:101EE00031832083DA012F5F3F4FECCF9093AB0219
:101EF0008093AA02D6CF1092A2021092A10206CE1F
:101F0000232B09F0A9CE0097B1F519821A821B8202
:101F10001C821D821E821F821886CE0101960E949D
:101F2000840B8091AC028F3FE1F48091AD028F3F32
:101F3000C1F401E414E0B12CA12C8091AA0290918B
:101F4000AB02A816B9060CF087CEBE016F5F7F4FBB
:101F5000C8010E942E036FEFA61AB60A065B1F4F38
:101F6000ECCF8CEA92E00E94F706BE016F5F7F4FD4
:101F70000E942E0371CE029709F06ECE19821A824A
:101F80001B821C821D821E821F821886CE01019632
:101F90000E94840B8091AC028F3FF1F48091AD02DE
:101FA0008F3FD1F481E494E0B12CA12C8C01065B2D
:101FB0001F4F2091AA023091AB02A216B3060CF07B
:101FC0004BCEBE016F5F7F4F80960E942E037FEF46
:101FD000A71AB70AC801EACF8CEA92E00E94F70676
:101FE000BE016F5F7F4F8096C3CF8AE4FE013196BA
:101FF000A1E4B4E001900D928A95E1F71092820479
:102000001092810481E090E09093AB028093AA0249
:102010008FED91E00E94D9058BEF91E00E94D905E8
:102020008AAD90E0982F882729AD820F911D0E94DC
:10203000C5060E942B0981E4809326038CE88093D7
:10204000270380916905809328038AEC80932903F4
:102050008EED80932A0348E050E0BE016F5C7F4F15
:10206000CE01855B9F4F0E94CC0088E0FE01E55BBE
:10207000FF4FABE2B3E001900D928A95E1F742E0A9
:1020800050E064E273E0CE01855A9F4F0E94CC007D
:102090006D968EAD9FAD6D9790933403809333030F
:1020A0000E94B90085E08093350389AD8093AC022E
:1020B0008AAD8093AD020E9433080E948004109282
:1020C000A902C054DF4F0FB6F894DEBF0FBECDBFDC
:1020D000DF91CF911F910F91FF90EF90DF90CF9004
:1020E000BF90AF909F908F907F906F905F904F9038
:1020F0003F902F90089586309105D1F58091F4029C
:102100009091F502019709F0CFC06091A7027091FC
:10211000A802609570957093A8026093A70285E06D
:102120000E946B028091320390E0982F88274091A3
:102130003303480F592F511D8091340390E0982F9D
:10214000882720913503820F911DC092AE02D09254
:10215000AF02E092B002F092B102509311014093AD
:10216000100190930F0180930E010E948004A9CF6B
:10217000059709F099C08091F4029091F502892B9E
:1021800009F092C080913303909134039A8389833C
:1021900042E050E0BE016F5F7F4FCE01855B9F4FF5
:1021A0000E94CC0019821A821B821C821D821E8210
:1021B0001F82188619861A861B861C861D861E8617
:1021C0001F86188A198A1A8A1B8A1C8A1D8A1E8AE7
:1021D0001F8A188E198E1A8E1B8E1C8E1D8E1E8EB7
:1021E0001F8E18A219A21AA21BA21CA21DA21EA217
:1021F0001FA218A619A61AA61BA61CA61DA61EA6D7
:102200001FA618AA2D968EAD9FAD2D979AAF89AFB8
:102210000091AA021091AB0241E4C42E44E0D42EF6
:10222000F12CE12CE016F1069CF442E050E0BE01F6
:10223000675C7F4FC601C8960E948830AAE4CA0E28
:10224000D11C892B09F491CFBFEFEB1AFB0AEACF1F
:102250002AE4209FC001219F900D11248F5B9B4F8A
:10226000FE013196DC0101900D922A95E1F7805C28
:102270009F4FFC01118300830F5F1F4F1093AB0230
:102280000093AA0283E092E00E94D9058BEF91E0CF
:102290000E94D9058AAD90E0982F882729AD820F3A
:1022A000911D0E94C50661CF80912D0390912E0350
:1022B0009A83898342E050E0BE016F5F7F4FCE0179
:1022C00083559F4F0E94CC00E7EEF0E08491E5E05B
:1022D000F1E0E490E9E1F1E0F490FF2079F0811180
:1022E0000E944202EF2DF0E0EE0FFF1FEE53FF4F72
:1022F000A591B491EC91EE2261E009F460E0609563
:1023000081E10E946B02CE0183559F4F0E94F70628
:102310001C01892B09F4D5CE8091F4029091F5022D
:102320008130910509F035C58091A9028017110609
:1023300019F081E08093A6020115110509F087C00C
:1023400065961FAE1EAE65978091300364968FAF81
:10235000649765964EAD5FAD65976091240370916B
:102360002503E6E2F3E090E080E0841795070CF0A7
:10237000A8CE9F0126523340A3856A1365C0A48569
:102380007A1362C0F901ED5CFC4F0081118110935A
:10239000D9020093D8021092A602C10108960E94A9
:1023A000600A0E942103D101DA966D937D938D938B
:1023B0009C93DD9782E08093A9020E942B09C101C2
:1023C000C8960E94D70081E080932F03B80190E067
:1023D00080E00E94B62920E030E040E853E50E940A
:1023E000212D2AE939E949E757E40E94152A0E947C
:1023F000602C2C962FAF2C972D963FAF2D972E96B5
:102400004FAF2E972F965FAF2F9760966FAF609765
:1024100061967FAF619762968FAF629763969FAF29
:102420006397F10180AD8093AC0281AD8093AD02E2
:10243000BE01655B7F4FCE0101960E948203CE01F3
:1024400001960E94690C91CE019634968ECF02308F
:10245000110509F036CEC555DF4F19821882CB5AC7
:10246000D04080913003C555DF4F8883CB5AD04090
:10247000C555DF4F28813981CB5AD0404091240384
:1024800050912503E6E2F3E090E080E082179307A5
:102490000CF017CEBF01665273407B016385461373
:1024A00075C46485561372C4510178E2A70EB11C3D
:1024B000C5010E94600A0E9480041092A902C10115
:1024C000C896CF54DF4F99838883C15BD0408091F9
:1024D000A602811144C4B7016D5C7C4FC1010E940A
:1024E0004404B701685C7C4F8101085E1F4FC8013E
:1024F0000E944404B701635C7C4F710190E2E90ED5
:10250000F11CC7010E944404CD55DF4F1882C35A05
:10251000D040CC55DF4F1882C45AD040CB55DF4F46
:102520001882C55AD040CA55DF4F1882C65AD040CB
:10253000C955DF4F1882C75AD040C855DF4F18829F
:10254000C85AD040C755DF4F1882C95AD040C65527
:10255000DF4F1882CA5AD040A101B801CE010196BE
:102560000E94A203CE0101960E945203BC01CE013B
:1025700085569F4F0E948203A101485F5F4F610112
:10258000A0E1CA0ED11CB601CE0101960E94A203A1
:10259000CE0101960E945203BC01CE018D569F4F81
:1025A0000E948203A601B501CE0101960E94A203FA
:1025B000CE0101960E945203BC01CE0185579F4F68
:1025C0000E948203A801B701CE0101960E94A203D6
:1025D000CE0101960E945203BC01CE018D579F4F40
:1025E0000E948203AE0145575F4FBE0165567F4F83
:1025F000CE018D599F4F0E94F503AE014D565F4F9E
:10260000BE016D597F4FCE01855A9F4F0E94F50341
:10261000AE014D575F4FBE01655A7F4FCE018D5AB7
:102620009F4F0E94F503BE016D567F4FCE0101966C
:102630000E948203A980BA80CB80DC80ED80FE807E
:102640000F811885CD57DF4F2881C358D040CC5714
:10265000DF4F3881C458D040CB57DF4F4881C55831
:10266000D040CA57DF4F5881C658D040C957DF4FB6
:102670006881C758D040C857DF4F7881C858D040CC
:10268000C757DF4F8881C958D040C657DF4F988160
:10269000CA58D0400E94112E29833A834B835C8311
:1026A0006D837E838F839887BE016F5F7F4FCE01DE
:1026B0008D589F4F0E948203BE0165567F4FCE0109
:1026C00001960E948203A980BA80CB80DC80ED80D5
:1026D000FE800F811885C557DF4F2881CB58D04029
:1026E000C457DF4F3881CC58D040C357DF4F4881A3
:1026F000CD58D040C257DF4F5881CE58D040C15737
:10270000DF4F6881CF58D040C057DF4F7881C05924
:10271000D040CF56DF4F8881C159D040CE56DF4FD1
:102720009881C259D0400E94112E29833A834B834D
:102730005C836D837E838F839887BE016F5F7F4F3D
:10274000CE0185589F4F0E948203AE014D585F4FC6
:10275000BE0165587F4FCE0185599F4F0E94A2034D
:10276000BE0165597F4FCE0101960E948203649697
:10277000AFAC64976596BFAC65976696CFAC66972D
:102780006796DFAC67976896EFAC68976996FFAC81
:1027900069976A960FAD6A976B961FAD6B97298103
:1027A0003A814B815C816D817E818F8198850E9409
:1027B0006B2E29833A834B835C836D837E838F8367
:1027C0009887BE016F5F7F4FCE01855B9F4F0E9450
:1027D0008203BE01655B7F4FCE018D559F4F0E94E6
:1027E0008203CD55DF4F2881C35AD040CC55DF4FEF
:1027F0003881C45AD040CB55DF4F4881C55AD040AC
:10280000CA55DF4F5881C65AD040C955DF4F68813D
:10281000C75AD040C855DF4F7881C85AD040C755F5
:10282000DF4F8881C95AD040C655DF4F9881CA5AB8
:10283000D0400E94D22C20E030E040E853E50E94D6
:10284000212D2EE53DEB49E95BE30E94152A6B0142
:102850007C018091A502F101EE5BFF4FC155DF4F76
:10286000F983E883CF5AD040882389F16081718150
:10287000072E000C880B990B0E94B62920E030E04F
:1028800048EC52E40E94EE2B4B015C0120E030E06A
:10289000A9010E94AF298823D1F020E030E040E672
:1028A0005FE3C501B4010E94152A4B015C0120E0E1
:1028B00030E040E05EE3C701B6010E94152A9B01AB
:1028C000AC01C501B4010E94822B6B017C010E9406
:1028D0009A0920E030E048EC52E40E94152A4B01AE
:1028E0005C0120E030E0A9010E94882D20E030E06A
:1028F00040E05FE387FD0EC2C501B4010E94822B58
:102900000E949C2C91012C5B3F4FC154DF4F3983B7
:102910002883CF5BD040D9016D937C9320E030E0D9
:1029200048EC52E4C701B6010E94152A6B017C01F4
:1029300020E030E0A9010E94882D20E030E040E056
:102940005FE387FDECC1C701B6010E94822B0E94A4
:102950009C2CC155DF4FE881F981CF5AD04071835B
:10296000608322E030E0AE01455A5F4F67E070E0DF
:1029700085E10E943E0922E030E0AE014D5A5F4FF2
:1029800062E070E082E10E943E0922E030E0AE01A8
:10299000455B5F4F64E070E082E10E943E0924E005
:1029A00030E0AE014F5F5F4F70E060E080E10E9479
:1029B0003E096D966EAD7FAD6D976596CEACDFAC82
:1029C00065972D96EEACFFAC2D970B8110E094E04F
:1029D000169507959A95E1F78C81F0E18F9FC001DC
:1029E0001124082B192B80911B01813009F09CC107
:1029F0002DE636E545E150E4C554DF4F28833983A1
:102A00004A835B83CB5BD04084EA90E7A7EEB2E4D5
:102A1000C954DF4F88839983AA83BB83C75BD040A7
:102A200090E080E00E94B4292B013C01B60190E0C7
:102A300080E00E94B4294B015C01B70190E080E086
:102A40000E94B429CD54DF4F688379838A839B83A6
:102A5000C35BD040B80190E080E00E94B4296B01D4
:102A60007C01A3019201C301B2010E94152A2B012E
:102A70003C01A5019401C501B4010E94152A9B01E6
:102A8000AC01C301B2010E94822B4B015C01CD5409
:102A9000DF4F288139814A815B81C35BD040CA0105
:102AA000B9010E94152A9B01AC01C501B4010E9425
:102AB000822B4B015C01A7019601C701B6010E9460
:102AC000152A9B01AC01C501B4010E94EE2B0E94A6
:102AD0008D2D20E030E040E251E40E94152AC954D7
:102AE000DF4F288139814A815B81C75BD0400E94DA
:102AF000812B6B017C0120E030E040EB52EC0E9426
:102B0000AF291816D4F420E030E040EB52E4C701BE
:102B1000B6010E94822BC554DF4F288139814A813A
:102B20005B81CB5BD0400E94152A9B01AC01C701A1
:102B3000B6010E94822B6B017C0120E030E048EC62
:102B400052E4C701B6010E94152A6B017C0120E006
:102B500030E0A9010E94882D20E030E040E05FE3F2
:102B600087FDF3C0C701B6010E94822B0E949C2CF6
:102B7000F101EA5BFF4F7183608322E030E0AE0138
:102B8000455B5F4F70E060E082E10E943E0922E019
:102B900030E0AE014F5F5F4F62E070E082E10E9483
:102BA0003E0969817A8190E080E00E94B4296B013E
:102BB0007C012D966EAD7FAD2D9790E080E00E9458
:102BC000B4299B01AC01C701B6010E94EE2B20E0A5
:102BD00030E048EC52E40E94152A6B017C0120E0B1
:102BE00030E0A9010E94882D20E030E040E05FE362
:102BF00087FDB0C0C701B6010E94822B0E949C2CA9
:102C0000F101E85BFF4F718360830E942B09CF5471
:102C1000DF4F88819981C15BD0400E94D70083E05B
:102C200080932F03C154DF4FA881B981CF5BD0407F
:102C30006D917C91072E000C880B990B0E94B62990
:102C400020E030E048EC52E40E94EE2B6B017C0166
:102C5000C155DF4FE881F981CF5AD0406081718141
:102C6000072E000C880B990B0E94B62920E030E05B
:102C700048EC52E40E94EE2B6093300370933103D2
:102C80008093320390933303C0923403D092350380
:102C9000E0923603F0923703D101D8968C91D89701
:102CA0008093AC02D9968C918093AD026091D8024A
:102CB0007091D90290E080E00E94B62920E030E0D7
:102CC00040E853E50E94212D2AE939E949E757E414
:102CD0000E94152A0E94602C29833A834B835C83CF
:102CE0006D837E838F839887CE0101960E94690C45
:102CF000F101E05CFF4F808191819093A402809369
:102D0000A302E0912203F0912303309709F4D9C97B
:102D10000995D7C9C501B4010E94812BF1CDC70126
:102D2000B6010E94812B13CE2DE636E545E95FE31F
:102D3000C554DF4F288339834A835B83CB5BD04004
:102D400081EE9AE7A3EFB2E463CEC701B6010E9419
:102D5000812B0CCFC701B6010E94812B4FCF0E945F
:102D60002B09CF54DF4F88819981C15BD0400E94ED
:102D7000D7008FEF80932F03F10180AD8093AC02D9
:102D800081AD8093AD020E9433089BC90196719674
:102D90007DCB892B09F095C98091A9028017110676
:102DA00009F08FC90130110509F0B5C0C10148967D
:102DB0000E94600A0E942103D101DA966D937D93EF
:102DC0008D939C93DD97C090AA02D090AB029601A0
:102DD00021503109F101E05CFF4F8081918128177A
:102DE000390709F06EC983E08093A9020E942B097C
:102DF00022E12C9DC0012D9D900D1124805B9F4FE1
:102E00009093D7028093D6028FEF64968FAF64972A
:102E100065968FAF6597CE018D5A9F4F0E94D70060
:102E200082E080932F03C092300320E030E040E83E
:102E300053E560E070E88BEB95E40E94212D2AE9D0
:102E400039E949E757E40E94152A0E94602C2C9624
:102E50002FAF2C972D963FAF2D972E964FAF2E97D5
:102E60002F965FAF2F9760966FAF609761967FAF99
:102E7000619762968FAF629763969FAF6397BE012B
:102E8000655B7F4FCE0101960E94A80B06E213E01E
:102E900081E4E82E84E0F82EB12CA12C3801B1E1B8
:102EA0006B0E711CAC14BD046CF5F70180AD91ADD7
:102EB000D8011C969C938E931B974701B0E28B0E12
:102EC000911CBE016F5F7F4FC4010E942E03B801A9
:102ED000635F7F4FC7010E94D706B8016E5E7F4FC8
:102EE000C70148960E94D706B801695E7F4FC401AA
:102EF0000E94D706EFEFAE1ABE0AFAE4EF0EF11CFD
:102F00008301CCCF64968FAD64978093AC026596B5
:102F10008FAD659736CF0330110509F0D2C84090C8
:102F200030035090310360903203709033032F963A
:102F30004CAE5DAE6EAE7FAE2F97C0903403D09096
:102F40003503E0903603F0903703C982DA82EB82D2
:102F5000FC828091A50281010E5B1F4F8823B1F195
:102F6000D8016D917C91072E000C880B990B0E9463
:102F7000B62920E030E048EC52E40E94EE2B4B01F1
:102F80005C0120E030E0A9010E94AF298823F1F024
:102F900020E030E040E05EE3C301B2010E94152A68
:102FA0002B013C0120E030E040E65FE3C501B401C5
:102FB0000E94152A9B01AC01C301B2010E94822B21
:102FC0002F966CAF7DAF8EAF9FAF2F9720E030E094
:102FD00048EC52E42F966CAD7DAD8EAD9FAD2F9732
:102FE0000E94152A4B015C0120E030E0A9010E94FB
:102FF000882D20E030E040E05FE387FD2BC0C50175
:10300000B4010E94822B0E949C2CF8017183608382
:1030100020E030E048EC52E4C701B6010E94152AD6
:103020006B017C0120E030E0A9010E94882D20E0A6
:1030300030E040E05FE387FD12C0C701B6010E94A7
:10304000822B0E949C2CF101EC5BFF4F718360830B
:10305000349751CEC501B4010E94812BD4CFC70152
:10306000B6010E94812BEDCF25E030E04BE952E024
:1030700070E060E08FE00E943E0980919B0290E04A
:10308000880F892F881F990B892B49F0E091E10265
:10309000F091E202309719F009950E94C3078091E0
:1030A0009C0290E020911C01222339F136E0959595
:1030B00087953A95E1F7817089F0E091DF02F09110
:1030C000E002309759F009950E94D0078091DE0206
:1030D000882321F00E944C080E94E007EBE9F2E00F
:1030E00085E0DF011D928A95E9F725E030E0AF0128
:1030F00070E060E08FE00C942B0725E095958795B4
:103100002A95E1F7D8CFFF920F931F93CF93DF93C8
:1031100000D000D0CDB7DEB7F82E8E010F5F1F4F65
:1031200084E0F80111928A95E9F724E030E0A801E3
:1031300070E060E086E30E943E09F11024C085E261
:1031400094E090930D0180930C0119828A818E7F07
:103150008A8321E030E0A80170E060E086E30E940D
:103160002B0724E030E0A80170E060E086E30E94D5
:103170002B070F900F900F900F90DF91CF911F9121
:103180000F91FF90089583E294E090930D01809356
:103190000C0189818C7F81608983DBCF8F929F9224
:1031A000AF92BF92CF92DF92EF92FF920F931F9355
:1031B000CF93DF93CDB7DEB7FC01EDB6FEB6808DC1
:1031C000918D880F991F880F991F2DB73EB7281B27
:1031D000390B0FB6F8943EBF0FBE2DBF8DB79EB70B
:1031E00001966C018689978924893589019665E065
:1031F00070E00E94D32A8217930709F074C060E040
:1032000070E0CB015EC0268937895D01AC0CBD1C26
:10321000821B930B8C01020F131F408D518D415067
:10322000510924173507A0F5A901440F551F440F74
:10323000551F4E0F5F1FDA014D915D916D917C918D
:10324000D5014D935D936D937D935D012F5F3F4F4E
:10325000E1CF46895789CA0196018C01041B150BE1
:10326000648975898617970798F4DC01AA0FBB1F3C
:10327000AA0FBB1FAE0FBF1F8D909D90AD90BC904D
:10328000D9018D929D92AD92BD929D010196E5CF9F
:1032900029E435E044E050E0B801C6010E949E27D1
:1032A00017FF02C00F5F1F4F15950795F801EE0F2E
:1032B000FF1FEE0FFF1FEC0DFD1D608171818281EC
:1032C00093810FB6F894FEBE0FBEEDBEDF91CF9195
:1032D0001F910F91FF90EF90DF90CF90BF90AF9034
:1032E0009F908F900895248935898689978928171A
:1032F0003907E9F4008D118D960190E080E0408D52
:10330000518D8417950720F6DC01AA0FBB1FAA0F69
:10331000BB1FAE0FBF1F4D915D916D917C91D90187
:103320004D935D936D937D939D010196E8CF268922
:103330003789848995898217930708F08ACF960187
:1033400090E080E044895589DC01AA0FBB1FAA0FD9
:10335000BB1F8417950708F056CFAE0FBF1F4D91C6
:103360005D916D917C91D9014D935D936D937D93AA
:103370009D010196E7CF2F923F924F925F926F92FD
:103380007F928F929F92AF92BF92CF92DF92EF92F5
:10339000FF920F931F93CF93DF93CDB7DEB76A975A
:1033A0000FB6F894DEBF0FBECDBF8091A3029091FF
:1033B000A4022AE4289FF001299FF00D1124EF5B5D
:1033C000FB4F81AD90E0982F882720AD820F911D93
:1033D00090939A0280939902EE5BFF4F6081718116
:1033E000072E000C880B990B0E94B62920E030E0D4
:1033F00048EC52E40E94EE2B609395027093960283
:103400008093970290939802609195027091960232
:10341000809197029091980220E030E0A9010E94EB
:10342000AF2987FF04C010929A02109299028091EE
:10343000990290919A028A319A4109F06FC1609184
:10344000950270919602809197029091980227EED2
:103450003AEF4EE75FE30E94152A6093950270935E
:1034600096028093970290939802609195027091D2
:1034700096028091970290919802209135043091A4
:10348000360440913704509138040E94812B609398
:1034900095027093960280939702909398024091C0
:1034A0009502509196026091970270919802009156
:1034B0002B0410912C04C8010E945905C8010E94D8
:1034C000CE186093000170930101809302019093E4
:1034D000030186E292E00E94D9056091000170919B
:1034E0000101809102019091030142E00E94DB05FD
:1034F0008AE292E00E94D905609104017091050171
:10350000809106019091070142E00E94DB058FE265
:1035100092E00E94D90560910801709109018091A3
:103520000A0190910B0142E00E94DB0532E7232E55
:1035300031E0332ECE0101969A8F898F10E000E0A2
:10354000F801EE0FFF1FEE0FFF1FE050FF4F6081ED
:103550007181828193812081318142815381F10186
:1035600080809180A280B380C480D580E680F7807F
:103570000E94152A2B013C01A5019401C501B4014B
:103580000E94152A9B01AC01C301B2010E94812B4C
:103590004B015C01A7019601C701B6010E94152AE3
:1035A0009B01AC01C501B4010E94812BE98DFA8D0C
:1035B0006193719381939193FA8FE98F0F5F1F4FFE
:1035C000F8E02F0E311C0330110509F0B9CF8E0140
:1035D000035F1F4F8EEFE82E82E0F82E1E0129E1D7
:1035E000220E311C88248394912C8C0E9D1E8CE01D
:1035F000880E911CF80111921192119211928F0173
:10360000CE0101966C015701412C512C3201F5017C
:1036100021913191419151915F01F6016191719137
:10362000819191916F010E94152A9B01AC01C30108
:10363000B2010E94822B2B013C018C149D0439F7AE
:10364000F80134974082518262827382FCE0EF0E6F
:10365000F11C2016310671F6CD84DE84EF84F888E3
:1036600089889A88AB88BC8884E392E00E94D90557
:1036700042E0C701B6010E94DB0581E492E00E94AE
:10368000D90542E0C501B4010E94DB0585E492E062
:103690000E94D90520E030E040E850E4C701B601BF
:1036A0000E94882D61E018160CF060E086E00E9410
:1036B0006B0220E030E048EC52E4C701B6010E9402
:1036C000152A0E94A32C709311016093100120E031
:1036D00030E048EC52E4C501B4010E94152A0E9472
:1036E000A32C70930F0160930E016A960FB6F894A5
:1036F000DEBF0FBECDBFDF91CF911F910F91FF9025
:10370000EF90DF90CF90BF90AF909F908F907F9081
:103710006F905F904F903F902F9008958091990205
:1037200090919A028A329A4109F04BC060919502B9
:1037300070919602809197029091980227EE3AEF4D
:103740004EE75FE30E94152A6093950270939602FC
:1037500080939702909398026091950270919602DF
:103760008091970290919802209131043091320417
:1037700040913304509134040E94812B6093950250
:1037800070939602809397029093980240919502CD
:1037900050919602609197027091980200912904CD
:1037A00010912A04C8010E945905C8010E94CE1830
:1037B00060930401709305018093060190930701C3
:1037C00088CE8091990290919A028A339A4109F0A9
:1037D00080CE6091950270919602809197029091AF
:1037E000980227EE3AEF4EE75FE30E94152A6093B6
:1037F000950270939602809397029093980260913D
:103800009502709196028091970290919802209172
:103810002D0430912E0440912F04509130040E94C9
:10382000812B6093950270939602809397029093F8
:103830009802409195025091960260919702709182
:1038400098020091270410912804C8010E9459058C
:10385000C8010E94CE1860930801709309018093FB
:103860000A0190930B0135CE1F920F920FB60F9263
:1038700011242F933F934F935F936F937F938F9375
:103880009F93AF93BF93EF93FF9386E893E00E94DB
:10389000B301FF91EF91BF91AF919F918F917F9174
:1038A0006F915F914F913F912F910F900FBE0F90AD
:1038B0001F9018951F920F920FB60F9211242F93FD
:1038C0008F939F93EF93FF93E0919603F09197036B
:1038D0008081E0919C03F0919D0382FD1BC090814B
:1038E00080919F038F5F8F732091A003821741F017
:1038F000E0919F03F0E0EA57FC4F958F80939F0380
:10390000FF91EF919F918F912F910F900FBE0F908C
:103910001F9018958081F4CF1F920F920FB60F92CF
:1039200011242F933F938F939F93AF93BF938091D5
:10393000C5029091C602A091C702B091C802309111
:10394000C40223E0230F2D3758F50196A11DB11DA8
:103950002093C4028093C5029093C602A093C7022D
:10396000B093C8028091C9029091CA02A091CB0283
:10397000B091CC020196A11DB11D8093C902909314
:10398000CA02A093CB02B093CC02BF91AF919F919A
:103990008F913F912F910F900FBE0F901F90189510
:1039A00026E8230F0296A11DB11DD2CF1F920F92C0
:1039B0000FB60F9211242F933F934F935F936F9302
:1039C0007F938F939F93AF93BF93EF93FF93E09178
:1039D0001401F09115010995FF91EF91BF91AF91FD
:1039E0009F918F917F916F915F914F913F912F9117
:1039F0000F900FBE0F901F9018951F920F920FB649
:103A00000F9211242F933F934F935F936F937F9364
:103A10008F939F93AF93BF93EF93FF93E091120126
:103A2000F09113010995FF91EF91BF91AF919F9193
:103A30008F917F916F915F914F913F912F910F9057
:103A40000FBE0F901F9018958AE190E00E94632F9F
:103A5000FC01158A148A24E030E0378B268B25E0A0
:103A600030E0318F208F0895CF92DF92EF92FF9256
:103A70000F931F93CF93DF931092890310928803C3
:103A800088EE93E0A0E0B0E080938A0390938B03EC
:103A9000A0938C03B0938D0381E991E09093870309
:103AA0008093860385EC90E0909393038093920338
:103AB00084EC90E0909395038093940380EC90E0E5
:103AC000909397038093960381EC90E090939903F1
:103AD0008093980382EC90E090939B0380939A03E9
:103AE00086EC90E090939D0380939C0310929F033B
:103AF0001092A0031092A1031092A203C1E4D4E09B
:103B000009E615E0C12CD12C7601D39418821982D4
:103B10001A821B821C821D821E821F8218861986B1
:103B20001A861B861C861D861E861F86188A198A81
:103B30001A8A1B8A1C8A1D8A1E8A1F8A188E198E51
:103B40001A8E1B8E1C8E1D8E1E8E1F8E18A219A201
:103B50001AA21BA21CA21DA21EA21FA218A619A671
:103B60001AA61BA61CA61DA61EA61FA60E945729A4
:103B7000A70196010E94E72A68AF0E945729A70172
:103B800096010E94E72A69AFC65BDF4F0C171D073D
:103B900009F0BCCF10926A051092690510923904A1
:103BA00010923A0410923B0410923C0410923D048F
:103BB00010923E0410923F041092400480E58093DE
:103BC000250481E08093260491E59093230480935B
:103BD000240480E692E5A3ECBEEB80933504909339
:103BE0003604A0933704B093380480933104909343
:103BF0003204A0933304B093340480932D04909343
:103C00002E04A0932F04B09330040E94241D90939F
:103C10002C0480932B040E94241D90932A048093EB
:103C200029040E94241D9093280480932704DF9187
:103C3000CF911F910F91FF90EF90DF90CF9008955B
:103C4000CF93DF93CDB7DEB7C654D1090FB6F89442
:103C5000DEBF0FBECDBF789484B5826084BD84B5CD
:103C6000816084BD85B5826085BD85B5816085BD77
:103C700080916E00816080936E001092810080912F
:103C800081008260809381008091810081608093B7
:103C90008100809180008160809380008091B100DC
:103CA00084608093B1008091B00081608093B00007
:103CB00080917A00846080937A0080917A0082609B
:103CC00080937A0080917A00816080937A0080915D
:103CD0007A00806880937A001092C100E091960388
:103CE000F091970382E08083E0919203F091930337
:103CF0001082E0919403F091950380E1808310920B
:103D00009E03E0919A03F0919B0386E08083E0910B
:103D10009803F0919903808180618083E0919803FA
:103D2000F0919903808188608083E0919803F091FD
:103D30009903808180688083E0919803F0919903D2
:103D400080818F7D808368EE73E080E090E00E9448
:103D5000EF0261E086E00E94990288EC90E0A0E02A
:103D6000B0E08093DA029093DB02A093DC02B09380
:103D7000DD0280E797E19093D9028093D80280E535
:103D800090E09093D7028093D60265E070E080E0E7
:103D900090E00E94EF021FB7F8948091CF0281114A
:103DA00027C0E2E1F1E08491EEEFF0E09491E82F9A
:103DB000F0E0EE0FFF1FE651FF4FA591B491EC919B
:103DC000E92321F461E08AE00E946B0261E08AE06D
:103DD0000E9499028CB580618CBD8CB580648CBDCD
:103DE00061E08DE00E94990261E08BE00E949902FF
:103DF0008091CF028F5F8093CF021FBF8FB7F8945F
:103E000092E09093D1028FBF89E090E09093D50229
:103E10008093D4021092D3021092D20284E398E1EC
:103E200090931301809312018091690083608093C5
:103E30006900E89A8AE090E09093CE028093CD02E8
:103E400061E00E94990261E08AE00E946B0280E0DA
:103E50000E94831865E070E080E090E00E94EF022D
:103E60000091D4021091D5020115110521F060E0F6
:103E7000802F0E94990261E0802F0E94990260E0E9
:103E8000802F0E946B0262E070E080E090E00E9470
:103E9000EF0260E0802F0E9499026AE070E080E00B
:103EA00090E00E94EF020E94370824E030E04FEFDC
:103EB00050E060E070E084EE92E00E94980424E01C
:103EC00030E044EE52E070E060E083E00E942B07B7
:103ED00054E0F52EE8EEF2E0DF012F2D1D922A9539
:103EE000E9F782E18093E9020E945E08E0EFF2E0E8
:103EF000DF012F2D1D922A95E9F724E030E0AF0174
:103F000070E060E08EE00E942B0781E00E94831841
:103F100065E070E080E090E00E94EF0222E030E097
:103F20008E010F5F1F4FA80166E070E08DE20E94D6
:103F30003E09F98A1A8A22E030E0AE014F5E5F4FF7
:103F400064E070E08DE20E942B0763E0E62EE982D8
:103F500022E030E0A80166E070E08DE20E942B07CD
:103F6000DD24D394D98222E030E0A80166E070E03D
:103F70008DE20E942B0724E030E0AE01475F5F4FE7
:103F80006AE070E08DE20E943E09198222E030E092
:103F9000A80166E070E08DE20E942B07D8011D9217
:103FA000FA94E9F71A8A198A24E030E0A80170E04F
:103FB00060E086E30E943E0922E030E0AE014F5E01
:103FC0005F4F66E070E08DE20E943E09D982EA828E
:103FD000198A80E88A8B24E030E0A80170E060E074
:103FE00086E30E942B0722E030E0AE014F5E5F4F78
:103FF00066E070E08DE20E942B0765E070E080E0F3
:1040000090E00E94EF02198282E08A8324E030E08F
:10401000A80170E060E086E30E942B0765E070E095
:1040200080E090E00E94EF0280E00E94831865E04B
:1040300070E080E090E00E94EF028BEB99E19093BA
:1040400023038093220386EF92E00E94D604CE01E0
:1040500009960E94D604888989838F858A838E85F4
:104060008B838D858C838C858D838B858E838A85D0
:104070008F838985888728E030E0A80170E060E0C0
:1040800081E00E942B078AE492E00E94D9058FE923
:1040900091E00E94B70680E480937C0080917A00D2
:1040A000806480937A0080917A0086FDFCCF8091B5
:1040B000780060917900762F682F072E000C880B0E
:1040C000990B611571058105910511F00E94A629D2
:1040D0000E945729C12CD12C7601D394A7019601B7
:1040E0000E94E72A609324030E945729A7019601A2
:1040F0000E94E72A60932503E0902403F12CFE2C14
:10410000EE24E60EF11C0E94370824E030E044EE75
:1041100052E070E060E083E00E943E0924E030E07D
:1041200048EE52E070E060E084E00E943E0924E046
:1041300030E04CEE52E070E060E08FE10E943E091A
:1041400025E030E040E853E070E060E088E00E9465
:104150003E0924E030E040EF52E070E060E08EE0A5
:104160000E943E090E94F908E092E402F092E50202
:104170008AEC8093E6028EED8093E7028AE891E074
:104180000E94670824E030E044EE52E070E060E016
:1041900083E00E942B070E945E0824E030E04CEE92
:1041A00052E070E060E08FE10E942B0725E030E0F4
:1041B00040E853E070E060E088E00E942B0724E0D4
:1041C00030E040EF52E070E060E08EE00E942B07AC
:1041D000F0901B01B1E022E030E040E758E860E0F9
:1041E00070E0FB1649F0E2E0FE120AC022E030E087
:1041F0004BE958E860E070E0CE018B960E9498048D
:1042000024E030E047E059EA62E075E2CE014996E9
:104210000E94980422E030E045E350E060E070E066
:10422000CE0189960E949804E0901A0122E030E0C5
:1042300046E150E060E070E0EE2091F0F1E022E035
:1042400030E046E050E060E070E0EF1649F022E038
:10425000E2120AC022E030E041E050E060E070E0AD
:10426000CE0187960E94980431E0F31289C022E0C3
:1042700030E047E850E060E070E0CE0185960E94B3
:104280009804D090190156E0D51631F08AE0D8167E
:1042900019F093E0D9127EC022E030E044E650E00D
:1042A00060E070E0EE2009F483C08091180188304E
:1042B00009F08DC0E1E024E030E04DE250E06AE139
:1042C00071E3FE1609F48EC0F2E024E030E04BE624
:1042D00050E06BE371E3FF1609F484C0A1E022E033
:1042E00030E040E150E060E070E0DA1621F048E2B2
:1042F00050E060E070E0CE0181960E949804D0907A
:104300001701B4E021E030E0DB1639F0E7E048EDDA
:1043100050E060E070E0DE1204C04CEB50E060E082
:1043200070E0CE018F960E949804F1E0DF1295C0F4
:1043300024E030E040E45CE560E070E0CE01099606
:104340000E94980421E030E049EC50E060E070E029
:10435000CE018E960E94980424E030E047E054E0BD
:1043600060E079E0C8010E94980421E030E04EE16D
:1043700050E060E070E0CE018D960E9498040EC17E
:1043800042E0F4127ECF22E030E04DE850E060E001
:1043900070E073CFA1E0DA1681F08FEF8E0D22E08E
:1043A00030E040E250E060E070E0823008F07DCF25
:1043B000CE0183960E94980478CFB2E0EB1275CFBD
:1043C00022E030E040E150E060E070E0F1CF803189
:1043D000C1F421E0F2120BC024E030E042E550E0ED
:1043E0006AE173E3CE0145960E94980477CF32E0EC
:1043F000F31274CF24E030E04EEB50E06BE373E354
:10440000F1CF8032A1F441E0F41207C024E030E0A3
:104410004AE950E06AE175E3E5CF52E0F5125ECF7C
:1044200024E030E04EE551E06BE375E3DBCF803410
:1044300009F054CF81E024E030E04DE151E06AE141
:1044400077E3F81679F292E0F91248CF24E030E0F1
:1044500046E952E06BE377E3C5CF22E0D21224C0F5
:1044600024E030E040EA5CE564E070E0CE010996CB
:104470000E94980421E030E042EC50E060E070E0FF
:10448000CE018E960E94980424E030E048E055E08A
:1044900060E478E0C8010E94980421E030E046E240
:1044A00050E060E070E067CF33E0D31224C024E036
:1044B00030E040EC5CE668E070E0CE0109960E94D6
:1044C000980421E030E045EC50E060E070E0CE017F
:1044D0008E960E94980424E030E049E050E160E4C8
:1044E00078E0C8010E94980421E030E04EE550E0F9
:1044F00060E070E040CF44E0D41211C024E030E02E
:1045000040E85CE564E070E0CE0109960E94980402
:1045100021E030E045E950E060E070E0B1CF55E0E7
:10452000D51224C024E030E040EE5FE36EE170E09D
:10453000CE0109960E94980421E030E040EC50E062
:1045400060E070E0CE018E960E94980424E030E096
:104550004DE154E060E078E0C8010E94980421E059
:1045600030E046EA50E060E070E005CF87E0D81226
:1045700011C024E030E040EE5DE76EE170E0CE0176
:1045800009960E94980421E030E043E950E060E0A1
:1045900070E0D8CF8D2D8D7F8530C1F221E030E0E5
:1045A0004DE050E060E070E0CE01C0960E949804BB
:1045B00091E022E030E047E056E160E070E0F9167B
:1045C00049F0A2E0FA120AC022E030E047E056E0EB
:1045D00060E070E0CE014F960E9498048091160131
:1045E0009FEF980F923008F0F8C122E030E043E3EB
:1045F0005BE060E070E0EE2021F048E959E560E022
:1046000070E0CE014D960E9498048FEF8D0D8230A0
:1046100008F0ABC2B1E0FB1297C28091E30224E044
:1046200030E045E755E565E375E1811103C045E7F5
:1046300055E7BA01CE0141960E94980422E030E08D
:10464000AE01455D5F4F64E070E083E20E942B079E
:1046500024E030E0AE01475E5F4F6CE070E083E243
:104660000E942B0722E030E0AE01475D5F4F62E120
:1046700070E083E20E942B0722E030E0AE01495D4A
:104680005F4F62E070E087E20E942B0722E030E09B
:10469000AE014B5D5F4F64E070E087E20E942B0744
:1046A00022E030E0AE014D5D5F4F66E070E087E2F2
:1046B0000E942B0724E030E0AE014B5E5F4F68E0C4
:1046C00070E087E20E942B0722E030E0AE014F5DF0
:1046D0005F4F66E270E087E20E942B0721E030E046
:1046E000AE01405D5F4F66E078E08EE20E942B07EE
:1046F00022E030E0AE01415E5F4F66E078E18EE29D
:104700000E942B0722E030E0AE01435E5F4F64E081
:1047100078E28EE20E942B0724E030E0AE014F5E8B
:104720005F4F70E060E08EE10E942B0721E030E0F7
:10473000AE01415D5F4F6BE070E088E20E942B07A5
:1047400024E030E0AE01475F5F4F6CE070E088E24C
:104750000E942B0721E030E0AE01425D5F4F6BE02D
:1047600070E08AE20E942B0721E030E0AE01435D59
:104770005F4F6BE070E08BE20E942B0724E030E09B
:10478000A80167E070E08BE20E942B0725E030E093
:1047900040E050E460E070E0C8010E949804B80175
:1047A00089E394E00E94440422E030E0A80170E034
:1047B00060E088E10E942B0722E030E0A80164E07D
:1047C00078E18EE20E942B078DE291E09093E20265
:1047D0008093E10281E391E09093E0028093DF0215
:1047E0000E944C080E94F90881E08093DE028091CB
:1047F000EB0280628093EB020E945E080E94E00759
:104800000E9421031092F5021092F4028BE592E0CF
:104810000E94B7060E94CA026BAF7CAF8DAF9EAFFD
:1048200080E090E0A0E0B0E88093FE029093FF0269
:10483000A0930003B09301038093020390930303BA
:10484000A0930403B093050340E050E060E87FE3E9
:104850004093060350930703609308037093090382
:10486000C12CD12C20ECE22EFE2CC0920A03D09257
:104870000B03E0920C03F0920D0380930E039093D0
:104880000F03A0931003B0931103409312035093AE
:10489000130360931403709315038093160390938E
:1048A0001703A0931803B0931903C0921A03D09270
:1048B0001B03E0921C03F0921D0340931E035093D0
:1048C0001F0360932003709321034DB75EB72196B9
:1048D0005FAF4EAF21971AAF09AF8EEF92E09AAB60
:1048E00089AB9CAB8BAB98AF8FAB712C612C29A89B
:1048F0003AA88301812C912C5401D101CD90DD90F7
:10490000ED90FC9020E030E0A901C701B6010E94C3
:10491000882DA701960118160CF05058C501B40156
:104920000E94AF29181684F020E030E0A901C701E9
:10493000B6010E94882D46015701181624F0B7FAD7
:10494000B094B7F8B09428010F5F1F4FBCE02B0E56
:10495000311C0330110589F68201000F111F040D6F
:10496000151DF801E60DF71DEE0FFF1FEE0FFF1FDF
:10497000E250FD4F20E030E0A90160817181828129
:1049800093810E94AF29811184C187E692E00E9441
:10499000B7060FB6F894DEBF0FBECDBF0E94CA02A5
:1049A0002BAD3CAD4DAD5EAD621B730B840B950B17
:1049B0004AE00E94950583EC91E00E94880500E0A2
:1049C00010E00E94850C01151105D9F30E949F018A
:1049D0008823B9F30E940000F4CF833011F08830AF
:1049E00071F422E030E04DE35AE060E070E0EE2048
:1049F00009F407CE4AEE51E560E070E002CE843063
:104A000071F422E030E041E558E060E070E0EE2033
:104A100009F4F7CD4EE852E460E070E0F2CD853065
:104A200071F422E030E043EA58E060E070E0EE200C
:104A300009F4E7CD4EE155E460E070E0E2CD863068
:104A400071F422E030E042EC55E060E070E0EE20EE
:104A500009F4D7CD44E15EE260E070E0D2CD87306A
:104A600071F422E030E040E050E160E070E0EE20E0
:104A700009F4C7CD40E050E860E070E0C2CD893075
:104A800071F422E030E04EE155E060E070E0EE20AD
:104A900009F4B7CD44EF58E260E070E0B2CD8A305F
:104AA00011F0813171F422E030E046E656E060E03A
:104AB00070E0EE2009F4A5CD42E353E360E070E03E
:104AC000A0CD8B3071F422E030E04CE557E060E09F
:104AD00070E0EE2009F495CD40EE5AE360E070E01E
:104AE00090CD8C3071F422E030E04EEA57E060E087
:104AF00070E0EE2009F485CD40E75DE360E070E012
:104B000080CD9EEE980F923070F422E030E048EBBA
:104B100056E060E070E0EE2009F473CD42EC55E31E
:104B200060E070E06ECD843109F06FCD22E030E0BE
:104B300045EF58E060E070E0EE2009F462CD4EEA07
:104B400057E460E070E05DCDE2E0FE1277CD809149
:104B5000E30224E030E047E657E467E277E08111C2
:104B600069CD47E657E6BA0165CDF3E0DF1222C012
:104B700021E0F2120EC08091E30224E030E04FE623
:104B80005FE46FE27FE0811155CD4FE65FE6BA0149
:104B900051CD32E0F31252CD8091E30224E030E0B7
:104BA0004BE85BE66BE47BE2811144CD4BE85BE8CC
:104BB000BA0140CD44E0D41222C051E0F5120EC03B
:104BC0008091E30224E030E04FE55FE36FE17FE1B5
:104BD000811130CD4FE55FE5BA012CCD82E0F812AE
:104BE0002DCD8091E30224E030E04AE95AE76AE5FE
:104BF0007AE381111FCD4AE95AE9BA011BCD95E04C
:104C0000D91222C0A1E0FA120EC08091E30224E082
:104C100030E048E458E268E07EE081110BCD48E4E2
:104C200058E4BA0107CDB2E0FB1208CD8091E3024F
:104C300024E030E045E855E665E475E28111FACC00
:104C400045E855E8BA01F6CCE7E0DE12F7CCF1E032
:104C5000FF120EC08091E30224E030E042E952E707
:104C600062E572E38111E6CC42E952E9BA01E2CC95
:104C700022E0F212E3CC8091E30224E030E041ED47
:104C800051EB61E771E58111D5CC41ED51EDBA01F0
:104C9000D1CC4614570419F1000F111F000F111F3A
:104CA00002501D4FABA9BCA983E090E04D915D91EE
:104CB0006D917D91F801C080D180E280F3809D01EB
:104CC00024503109F901C082D182E282F382F801D5
:104CD00041935193619371938F01019739F7A9AD76
:104CE000BAAD4D925D92BAAFA9AFE9A9FAA92081F8
:104CF00031814281538160E070E080E89FE30E944F
:104D0000EE2B4B015C0180E090E0A0E8BFE3E9A955
:104D1000FAA980839183A283B383EBA8FCA810E057
:104D200000E0D7012D913D914D915D917D016D0187
:104D3000B4E0CB1AD108C501B4010E94152AF601CE
:104D400060837183828393830F5F1F4F033011054C
:104D500041F72FA838AC6EEFC62E62E0D62E10E0D9
:104D600000E06016710609F446C0D1012D913D9115
:104D70004D915C9125962CAF3DAF4EAF5FAF25971F
:104D8000F1011082118212821382DEAACDAAF12CC7
:104D9000E12CADA9BEA98D909D90AD90BD90BEAB0C
:104DA000ADAB14972796BFAFAEAF2797EBA9FCA981
:104DB000EE0DFF1D208131814281538125966CAD1E
:104DC0007DAD8EAD9FAD25970E94152A9B01AC014C
:104DD000C501B4010E94812B2796EEADFFAD279748
:104DE0006083718382839383F4E0EF0EF11C2CE0E7
:104DF000E216F10471F60F5F1F4F3CE0C30ED11CA9
:104E00004CE0240E311C0330110509F0AACF5FEFEE
:104E1000651A750A8FA998AD049698AF8FABABA9A8
:104E2000BCA91C96BCABABABE9A9FAA97096FAABCE
:104E3000E9ABF3E06F16710409F059CD9E01295FCB
:104E40003F4F82E090E0D901FE91EE919D01E8177D
:104E5000F90741F1DC01AA0FBB1FAA0FBB1FA2502B
:104E6000BD4FEE0FFF1FEE0FFF1FE250FD4F50E052
:104E700040E0CD90DD90ED90FC9013978080918084
:104E8000A280B3808D929D92AD92BC921397C08206
:104E9000D182E282F3824F5F5F4F1C963C96433093
:104EA000510539F7019778F674CDCF93DF93DC0184
:104EB0002D91FB013191EC013883EB0128834150A6
:104EC0005109CD01BF01141615068CF3DF91CF9166
:104ED0000895B0E0A0E0EFE6F7E20C94232B6C011C
:104EE000D62FC72F8A017901F9010995B80197FFDB
:104EF00015C08D2F9C2FF701099597FD08C0B801AB
:104F0000C601F701099597FD16C0DC2DCD2D8D2F1B
:104F10009C2FCDB7DEB7E8E00C943F2B8D2F9C2F54
:104F2000F70109951816190694F3B801C601F7019F
:104F3000099597FDEACFD02FC12FE9CFA8E0B0E0C7
:104F4000E4EAF7E20C94192B8C0158874F8359013E
:104F50009A013195219531093E832D836F807884A4
:104F6000600E711E6730710578F58F819885689F96
:104F70006001699FD00C789FD00C1124C00ED11E07
:104F80006C147D0420F02896E2E10C94352B73011B
:104F900013C047012F813885821A930AB701C401D3
:104FA000F50109951816190654F44F815885B40176
:104FB000C7010E94552774010E151F0550F3EF819C
:104FC000F8856E0E7F1EDCCFCB01969587952F81DD
:104FD0003885829F6001839FD00C929FD00C112452
:104FE000C00ED11ECB010197829F1001839F300C10
:104FF000929F300C11247801E20CF31C673071058C
:1050000009F442C0C701280169327105B0F183E09B
:10501000769567958A95E1F7629F4001639F900CB2
:10502000729F900C1124C401880F991F9A83898361
:10503000AC01400F511FB801680D791D9501C801E1
:105040000E9469272C01A601480D591D9194819455
:1050500091089501B601C601880D991D0E94692726
:105060006C01B701680D791D9501A701C701E981A0
:10507000FA818E1B9F0B0E9469279501AC01B60136
:10508000C2010E9469276C014F815885B601C80191
:105090000E9455274301630127011A821982EC14EB
:1050A000FD0408F446C0B801C601F50109951816BB
:1050B000190654F1892B71F44F815885B601C3014B
:1050C0000E9455272F813885620E731E81E090E083
:1050D0009A838983EF81F885CE0EDF1EE0CF892B7E
:1050E00071F44F815885B201C7010E9455272D8167
:1050F0003E81420E531E81E090E09A838983EB80CB
:10510000FC80EC14FD04A8F0B801C701F501099575
:105110002D813E812E0D3F1D3C832B8397FFDFCFDA
:105120004F815885B701C6010E945527EB80FC804E
:10513000CDCFEF81F8852E0E3F1E200E311E298126
:105140003A81232B09F58214930408F01CCF7401D3
:1051500013C06701EF81F885CE1ADF0AB701C601D7
:10516000F50109951816190654F44F815885B601B2
:10517000C7010E94552776010E151F0550F38F8138
:105180009885880E991EDFCF460186189708A301DF
:10519000401B510B841695060CF4A4011416150639
:1051A00034F4B601641B750BC8010E9455279201A7
:1051B0002E193F097901A101441955098F8198855C
:1051C000481B590B2417350708F4A90114161506B6
:1051D00034F4B101641B750BC6010E945527EF81A1
:1051E000F885E815F90548F4C401BF010E94D32AE7
:1051F0009501AF01C8010E949E272F8138852E1589
:105200003F0508F0C0CE81010E191F09C701B90181
:105210000E94D32AA3CE8F929F92AF92BF92CF9239
:10522000DF92EF92FF92CF93DF93EC016881798157
:105230008A819B81611571058105910521F464E2E4
:1052400079ED8BE597E02DE133EF41E050E00E94EE
:10525000E72A49015A019B01AC01A7EAB1E40E9487
:10526000062B6B017C01ACEEB4EFA50194010E940A
:10527000142BC60ED71EE81EF91EF7FE06C081E0ED
:10528000C81AD108E10880E8F80AC882D982EA82FF
:10529000FB82C701B6019F77DF91CF91FF90EF901E
:1052A000DF90CF90BF90AF909F908F9008958F9296
:1052B0009F92AF92BF92CF92DF92EF92FF92609156
:1052C0001D0170911E0180911F01909120016115B7
:1052D00071058105910521F464E279ED8BE597E094
:1052E0002DE133EF41E050E00E94E72A49015A01E5
:1052F0009B01AC01A7EAB1E40E94062B6B017C0183
:10530000ACEEB4EFA50194010E94142BC60ED71E7B
:10531000E81EF91EF7FE06C081E0C81AD108E108B0
:1053200080E8F80AC0921D01D0921E01E0921F0190
:10533000F0922001C701B6019F77FF90EF90DF90B8
:10534000CF90BF90AF909F908F90089560931D0174
:1053500070931E0180931F019093200108950E9475
:10536000F12908F481E00895E89409C097FB3EF420
:1053700090958095709561957F4F8F4F9F4F9923A2
:10538000A9F0F92F96E9BB279395F6958795779520
:105390006795B795F111F8CFFAF4BB0F11F460FFE0
:1053A0001BC06F5F7F4F8F4F9F4F16C0882311F038
:1053B00096E911C0772321F09EE8872F762F05C04C
:1053C000662371F096E8862F70E060E02AF09A95E7
:1053D000660F771F881FDAF7880F9695879597F9DC
:1053E0000895990F0008550FAA0BE0E8FEEF161676
:1053F0001706E807F907C0F012161306E407F507C9
:1054000098F0621B730B840B950B39F40A2661F03C
:10541000232B242B252B21F408950A2609F4A140DF
:10542000A6958FEF811D811D08950E94282A0C9456
:10543000992A0E948B2A38F00E94922A20F0952304
:1054400011F00C94822A0C94882A11240C94CD2AF1
:105450000E94AA2A70F3959FC1F3950F50E0551F43
:10546000629FF001729FBB27F00DB11D639FAA27B9
:10547000F00DB11DAA1F649F6627B00DA11D661F08
:10548000829F2227B00DA11D621F739FB00DA11D29
:10549000621F839FA00D611D221F749F3327A00DE3
:1054A000611D231F849F600D211D822F762F6A2F7F
:1054B00011249F5750409AF0F1F088234AF0EE0FE4
:1054C000FF1FBB1F661F771F881F91505040A9F711
:1054D0009E3F510580F00C94822A0C94CD2A5F3FA8
:1054E000E4F3983ED4F3869577956795B795F7954D
:1054F000E7959F5FC1F7FE2B880F911D96958795C5
:1055000097F9089597F99F6780E870E060E0089543
:105510009FEF80EC089500240A94161617061806CB
:105520000906089500240A941216130614060506A7
:105530000895092E0394000C11F4882352F0BB0F38
:1055400040F4BF2B11F460FF04C06F5F7F4F8F4F9B
:105550009F4F089557FD9058440F551F59F05F3FD6
:1055600071F04795880F97FB991F61F09F3F79F085
:1055700087950895121613061406551FF2CF469507
:10558000F1DF08C0161617061806991FF1CF869589
:105590007105610508940895E894BB27662777276D
:1055A000CB0197F90895AA1BBB1B51E107C0AA1FA5
:1055B000BB1FA617B70710F0A61BB70B881F991FB4
:1055C0005A95A9F780959095BC01CD010895052EB7
:1055D00097FB1EF400940E94FE2A57FD07D00E94FC
:1055E000502B07FC03D04EF40C94FE2A50954095A6
:1055F000309521953F4F4F4F5F4F0895909580957F
:10560000709561957F4F8F4F9F4F08950E94722B29
:10561000A59F900DB49F900DA49F800D911D112406
:105620000895B7FF0C94062B0E94062B821B930B48
:1056300008952F923F924F925F926F927F928F9236
:105640009F92AF92BF92CF92DF92EF92FF920F9311
:105650001F93CF93DF93CDB7DEB7CA1BDB0B0FB61B
:10566000F894DEBF0FBECDBF09942A8839884888D8
:105670005F846E847D848C849B84AA84B984C8846E
:10568000DF80EE80FD800C811B81AA81B981CE0F65
:10569000D11D0FB6F894DEBF0FBECDBFED0108954A
:1056A000A1E21A2EAA1BBB1BFD010DC0AA1FBB1F26
:1056B000EE1FFF1FA217B307E407F50720F0A21B98
:1056C000B30BE40BF50B661F771F881F991F1A9405
:1056D00069F760957095809590959B01AC01BD012F
:1056E000CF010895A29FB001B39FC001A39F700D89
:1056F000811D1124911DB29F700D811D1124911DDA
:1057000008955058BB27AA270E94992B0C94992AD8
:105710000E948B2A38F00E94922A20F039F49F3F91
:1057200019F426F40C94882A0EF4E095E7FB0C9407
:10573000822AE92F0E94AA2A58F3BA176207730730
:105740008407950720F079F4A6F50C94CC2A0EF482
:10575000E0950B2EBA2FA02D0B01B90190010C0181
:10576000CA01A0011124FF27591B99F0593F50F499
:10577000503E68F11A16F040A22F232F342F4427F1
:10578000585FF3CF469537952795A795F0405395E9
:10579000C9F77EF41F16BA0B620B730B840BBAF0B9
:1057A0009150A1F0FF0FBB1F661F771F881FC2F724
:1057B0000EC0BA0F621F731F841F48F48795779538
:1057C0006795B795F7959E3F08F0B0CF9395880FF2
:1057D00008F09927EE0F9795879508950E94022C5F
:1057E0000C94992A0E94922A58F00E948B2A40F029
:1057F00029F45F3F29F00C94822A51110C94CD2A90
:105800000C94882A0E94AA2A68F39923B1F355239D
:1058100091F3951B550BBB27AA27621773078407C3
:1058200038F09F5F5F4F220F331F441FAA1FA9F359
:1058300035D00E2E3AF0E0E832D091505040E69547
:10584000001CCAF72BD0FE2F29D0660F771F881FA8
:10585000BB1F261737074807AB07B0E809F0BB0B9B
:10586000802DBF01FF2793585F4F3AF09E3F5105AF
:1058700078F00C94822A0C94CD2A5F3FE4F3983E92
:10588000D4F3869577956795B795F7959F5FC9F798
:10589000880F911D9695879597F90895E1E0660F19
:1058A000771F881FBB1F621773078407BA0720F092
:1058B000621B730B840BBA0BEE1F88F7E0950895FB
:1058C000BEE304D008F490E80895BFE3222733270D
:1058D000A9010E94B22A60F19F5748F1B91740F11F
:1058E000BFE3B91B9927B8503AF4660F771F881F9A
:1058F000991FB395D2F316C0B8504AF0232F342F16
:10590000452F562F672F782F8827B850BAF7B85FE2
:1059100049F08695779567955795479537952795DB
:10592000BA95B9F716F40E94782D88940895889452
:1059300060E070E0CB0108950E94A32C6894B1113F
:105940000C94CD2A08950E94B22A88F09F5798F0AF
:10595000B92F9927B751B0F0E1F0660F771F881F74
:10596000991F1AF0BA95C9F714C0B13091F00E948E
:10597000CC2AB1E008950C94CC2A672F782F882781
:10598000B85F39F0B93FCCF3869577956795B395B5
:10599000D9F73EF490958095709561957F4F8F4F24
:1059A0009F4F089597FB16F40E94782D0C94D92CE4
:1059B000E894F92F96EBFF2381F0121613061406D4
:1059C000440B9395F6958795779567955795404045
:1059D000FF23B9F71BC099270895882351F49850E5
:1059E000D2F7872B762F652F542F432F322F20E0AD
:1059F000B1F3121613061406440B88233AF09A9555
:105A0000440F551F661F771F881FCAF755234AF496
:105A1000440F551F11F460FF04C06F5F7F4F8F4F1D
:105A20009F4F880F9695879597F908950E948B2A26
:105A300020F019F00E94922A50F40C94882A0C94B9
:105A4000CD2AE92F0E94AA2A88F35523B1F3E7FB58
:105A50006217730784079507A8F189F3E92FFF27D9
:105A600088232AF03197660F771F881FDAF7952F62
:105A70005527442332F091505040220F331F441FCA
:105A8000D2F7BB27E91BF50B621B730B840BB10923
:105A9000B1F222F4620F731F841FB11D31972AF0F7
:105AA000660F771F881FBB1FEFCF9150504062F0E9
:105AB00041F0882332F0660F771F881F91505040C5
:105AC000C1F793950C946A2D8695779567959F5F9E
:105AD000D9F7F7CF9F3F31F0915020F48795779514
